{
  "_format": "hh-sol-artifact-1",
  "contractName": "CeloRemit",
  "sourceName": "contracts/CeloRemit.sol",
  "abi": [
    {
      "inputs": [],
      "stateMutability": "nonpayable",
      "type": "constructor"
    },
    {
      "inputs": [
        {
          "internalType": "address",
          "name": "owner",
          "type": "address"
        }
      ],
      "name": "OwnableInvalidOwner",
      "type": "error"
    },
    {
      "inputs": [
        {
          "internalType": "address",
          "name": "account",
          "type": "address"
        }
      ],
      "name": "OwnableUnauthorizedAccount",
      "type": "error"
    },
    {
      "inputs": [],
      "name": "ReentrancyGuardReentrantCall",
      "type": "error"
    },
    {
      "inputs": [
        {
          "internalType": "address",
          "name": "token",
          "type": "address"
        }
      ],
      "name": "SafeERC20FailedOperation",
      "type": "error"
    },
    {
      "anonymous": false,
      "inputs": [
        {
          "indexed": true,
          "internalType": "address",
          "name": "previousOwner",
          "type": "address"
        },
        {
          "indexed": true,
          "internalType": "address",
          "name": "newOwner",
          "type": "address"
        }
      ],
      "name": "OwnershipTransferred",
      "type": "event"
    },
    {
      "anonymous": false,
      "inputs": [
        {
          "indexed": true,
          "internalType": "bytes32",
          "name": "id",
          "type": "bytes32"
        },
        {
          "indexed": false,
          "internalType": "uint256",
          "name": "targetAmount",
          "type": "uint256"
        },
        {
          "indexed": false,
          "internalType": "uint256",
          "name": "fee",
          "type": "uint256"
        }
      ],
      "name": "RemittanceCompleted",
      "type": "event"
    },
    {
      "anonymous": false,
      "inputs": [
        {
          "indexed": true,
          "internalType": "bytes32",
          "name": "id",
          "type": "bytes32"
        },
        {
          "indexed": true,
          "internalType": "address",
          "name": "sender",
          "type": "address"
        },
        {
          "indexed": true,
          "internalType": "address",
          "name": "recipient",
          "type": "address"
        },
        {
          "indexed": false,
          "internalType": "address",
          "name": "sourceToken",
          "type": "address"
        },
        {
          "indexed": false,
          "internalType": "address",
          "name": "targetToken",
          "type": "address"
        },
        {
          "indexed": false,
          "internalType": "uint256",
          "name": "sourceAmount",
          "type": "uint256"
        },
        {
          "indexed": false,
          "internalType": "string",
          "name": "memo",
          "type": "string"
        }
      ],
      "name": "RemittanceCreated",
      "type": "event"
    },
    {
      "inputs": [],
      "name": "FEE_DENOMINATOR",
      "outputs": [
        {
          "internalType": "uint256",
          "name": "",
          "type": "uint256"
        }
      ],
      "stateMutability": "view",
      "type": "function"
    },
    {
      "inputs": [],
      "name": "PUSO",
      "outputs": [
        {
          "internalType": "address",
          "name": "",
          "type": "address"
        }
      ],
      "stateMutability": "view",
      "type": "function"
    },
    {
      "inputs": [],
      "name": "cCOP",
      "outputs": [
        {
          "internalType": "address",
          "name": "",
          "type": "address"
        }
      ],
      "stateMutability": "view",
      "type": "function"
    },
    {
      "inputs": [],
      "name": "cEUR",
      "outputs": [
        {
          "internalType": "address",
          "name": "",
          "type": "address"
        }
      ],
      "stateMutability": "view",
      "type": "function"
    },
    {
      "inputs": [],
      "name": "cKES",
      "outputs": [
        {
          "internalType": "address",
          "name": "",
          "type": "address"
        }
      ],
      "stateMutability": "view",
      "type": "function"
    },
    {
      "inputs": [],
      "name": "cREAL",
      "outputs": [
        {
          "internalType": "address",
          "name": "",
          "type": "address"
        }
      ],
      "stateMutability": "view",
      "type": "function"
    },
    {
      "inputs": [],
      "name": "cUSD",
      "outputs": [
        {
          "internalType": "address",
          "name": "",
          "type": "address"
        }
      ],
      "stateMutability": "view",
      "type": "function"
    },
    {
      "inputs": [
        {
          "internalType": "string",
          "name": "",
          "type": "string"
        }
      ],
      "name": "currencies",
      "outputs": [
        {
          "internalType": "string",
          "name": "symbol",
          "type": "string"
        },
        {
          "internalType": "string",
          "name": "name",
          "type": "string"
        },
        {
          "internalType": "string",
          "name": "country",
          "type": "string"
        },
        {
          "internalType": "address",
          "name": "tokenAddress",
          "type": "address"
        },
        {
          "internalType": "bool",
          "name": "isActive",
          "type": "bool"
        }
      ],
      "stateMutability": "view",
      "type": "function"
    },
    {
      "inputs": [
        {
          "internalType": "uint256",
          "name": "",
          "type": "uint256"
        }
      ],
      "name": "currencySymbols",
      "outputs": [
        {
          "internalType": "string",
          "name": "",
          "type": "string"
        }
      ],
      "stateMutability": "view",
      "type": "function"
    },
    {
      "inputs": [],
      "name": "eXOF",
      "outputs": [
        {
          "internalType": "address",
          "name": "",
          "type": "address"
        }
      ],
      "stateMutability": "view",
      "type": "function"
    },
    {
      "inputs": [
        {
          "internalType": "address",
          "name": "token",
          "type": "address"
        },
        {
          "internalType": "uint256",
          "name": "amount",
          "type": "uint256"
        }
      ],
      "name": "emergencyWithdraw",
      "outputs": [],
      "stateMutability": "nonpayable",
      "type": "function"
    },
    {
      "inputs": [
        {
          "internalType": "address",
          "name": "recipient",
          "type": "address"
        },
        {
          "internalType": "address",
          "name": "sourceToken",
          "type": "address"
        },
        {
          "internalType": "address",
          "name": "targetToken",
          "type": "address"
        },
        {
          "internalType": "uint256",
          "name": "sourceAmount",
          "type": "uint256"
        },
        {
          "internalType": "uint256",
          "name": "minTargetAmount",
          "type": "uint256"
        },
        {
          "internalType": "string",
          "name": "memo",
          "type": "string"
        }
      ],
      "name": "executeRemittance",
      "outputs": [
        {
          "internalType": "bytes32",
          "name": "remittanceId",
          "type": "bytes32"
        }
      ],
      "stateMutability": "nonpayable",
      "type": "function"
    },
    {
      "inputs": [],
      "name": "feeCollector",
      "outputs": [
        {
          "internalType": "address",
          "name": "",
          "type": "address"
        }
      ],
      "stateMutability": "view",
      "type": "function"
    },
    {
      "inputs": [
        {
          "internalType": "address",
          "name": "sourceToken",
          "type": "address"
        },
        {
          "internalType": "address",
          "name": "targetToken",
          "type": "address"
        },
        {
          "internalType": "uint256",
          "name": "sourceAmount",
          "type": "uint256"
        }
      ],
      "name": "getQuote",
      "outputs": [
        {
          "internalType": "uint256",
          "name": "targetAmount",
          "type": "uint256"
        },
        {
          "internalType": "uint256",
          "name": "fee",
          "type": "uint256"
        },
        {
          "internalType": "uint256",
          "name": "exchangeRate",
          "type": "uint256"
        }
      ],
      "stateMutability": "view",
      "type": "function"
    },
    {
      "inputs": [
        {
          "internalType": "bytes32",
          "name": "id",
          "type": "bytes32"
        }
      ],
      "name": "getRemittance",
      "outputs": [
        {
          "components": [
            {
              "internalType": "address",
              "name": "sender",
              "type": "address"
            },
            {
              "internalType": "address",
              "name": "recipient",
              "type": "address"
            },
            {
              "internalType": "address",
              "name": "sourceToken",
              "type": "address"
            },
            {
              "internalType": "address",
              "name": "targetToken",
              "type": "address"
            },
            {
              "internalType": "uint256",
              "name": "sourceAmount",
              "type": "uint256"
            },
            {
              "internalType": "uint256",
              "name": "targetAmount",
              "type": "uint256"
            },
            {
              "internalType": "string",
              "name": "memo",
              "type": "string"
            },
            {
              "internalType": "uint256",
              "name": "timestamp",
              "type": "uint256"
            },
            {
              "internalType": "enum CeloRemit.RemittanceStatus",
              "name": "status",
              "type": "uint8"
            }
          ],
          "internalType": "struct CeloRemit.RemittanceIntent",
          "name": "",
          "type": "tuple"
        }
      ],
      "stateMutability": "view",
      "type": "function"
    },
    {
      "inputs": [],
      "name": "getSupportedCurrencies",
      "outputs": [
        {
          "components": [
            {
              "internalType": "string",
              "name": "symbol",
              "type": "string"
            },
            {
              "internalType": "string",
              "name": "name",
              "type": "string"
            },
            {
              "internalType": "string",
              "name": "country",
              "type": "string"
            },
            {
              "internalType": "address",
              "name": "tokenAddress",
              "type": "address"
            },
            {
              "internalType": "bool",
              "name": "isActive",
              "type": "bool"
            }
          ],
          "internalType": "struct CeloRemit.Currency[]",
          "name": "",
          "type": "tuple[]"
        }
      ],
      "stateMutability": "view",
      "type": "function"
    },
    {
      "inputs": [
        {
          "internalType": "address",
          "name": "user",
          "type": "address"
        }
      ],
      "name": "getUserRemittances",
      "outputs": [
        {
          "internalType": "bytes32[]",
          "name": "",
          "type": "bytes32[]"
        }
      ],
      "stateMutability": "view",
      "type": "function"
    },
    {
      "inputs": [],
      "name": "owner",
      "outputs": [
        {
          "internalType": "address",
          "name": "",
          "type": "address"
        }
      ],
      "stateMutability": "view",
      "type": "function"
    },
    {
      "inputs": [],
      "name": "platformFee",
      "outputs": [
        {
          "internalType": "uint256",
          "name": "",
          "type": "uint256"
        }
      ],
      "stateMutability": "view",
      "type": "function"
    },
    {
      "inputs": [
        {
          "internalType": "bytes32",
          "name": "",
          "type": "bytes32"
        }
      ],
      "name": "remittances",
      "outputs": [
        {
          "internalType": "address",
          "name": "sender",
          "type": "address"
        },
        {
          "internalType": "address",
          "name": "recipient",
          "type": "address"
        },
        {
          "internalType": "address",
          "name": "sourceToken",
          "type": "address"
        },
        {
          "internalType": "address",
          "name": "targetToken",
          "type": "address"
        },
        {
          "internalType": "uint256",
          "name": "sourceAmount",
          "type": "uint256"
        },
        {
          "internalType": "uint256",
          "name": "targetAmount",
          "type": "uint256"
        },
        {
          "internalType": "string",
          "name": "memo",
          "type": "string"
        },
        {
          "internalType": "uint256",
          "name": "timestamp",
          "type": "uint256"
        },
        {
          "internalType": "enum CeloRemit.RemittanceStatus",
          "name": "status",
          "type": "uint8"
        }
      ],
      "stateMutability": "view",
      "type": "function"
    },
    {
      "inputs": [],
      "name": "renounceOwnership",
      "outputs": [],
      "stateMutability": "nonpayable",
      "type": "function"
    },
    {
      "inputs": [
        {
          "internalType": "uint256",
          "name": "_fee",
          "type": "uint256"
        }
      ],
      "name": "setFee",
      "outputs": [],
      "stateMutability": "nonpayable",
      "type": "function"
    },
    {
      "inputs": [
        {
          "internalType": "address",
          "name": "_collector",
          "type": "address"
        }
      ],
      "name": "setFeeCollector",
      "outputs": [],
      "stateMutability": "nonpayable",
      "type": "function"
    },
    {
      "inputs": [],
      "name": "totalRemittances",
      "outputs": [
        {
          "internalType": "uint256",
          "name": "",
          "type": "uint256"
        }
      ],
      "stateMutability": "view",
      "type": "function"
    },
    {
      "inputs": [],
      "name": "totalVolume",
      "outputs": [
        {
          "internalType": "uint256",
          "name": "",
          "type": "uint256"
        }
      ],
      "stateMutability": "view",
      "type": "function"
    },
    {
      "inputs": [
        {
          "internalType": "address",
          "name": "newOwner",
          "type": "address"
        }
      ],
      "name": "transferOwnership",
      "outputs": [],
      "stateMutability": "nonpayable",
      "type": "function"
    },
    {
      "inputs": [
        {
          "internalType": "address",
          "name": "",
          "type": "address"
        },
        {
          "internalType": "uint256",
          "name": "",
          "type": "uint256"
        }
      ],
      "name": "userRemittances",
      "outputs": [
        {
          "internalType": "bytes32",
          "name": "",
          "type": "bytes32"
        }
      ],
      "stateMutability": "view",
      "type": "function"
    }
  ],
  "bytecode": "0x608060405260326008553480156200001657600080fd5b5033806200003e57604051631e4fbdf760e01b81526000600482015260240160405180910390fd5b620000498162000070565b5060018055600980546001600160a01b031916331790556200006a620000c0565b6200076b565b600080546001600160a01b038381166001600160a01b0319831681178455604051919092169283917f8be0079c531659141344cd1fd0a4f28419497f9722a3daafe3b4186f6b6457e09190a35050565b6200014c6040518060400160405280600481526020016318d554d160e21b8152506040518060400160405280600b81526020016a21b2b637902237b63630b960a91b8152506040518060400160405280600d81526020016c556e697465642053746174657360981b81525073765de816845861e75a25fca122bb6898b8b1282a620004b660201b60201c565b620001d76040518060400160405280600481526020016331a2aaa960e11b8152506040518060400160405280600981526020016843656c6f204575726f60b81b8152506040518060400160405280600e81526020016d22bab937b832b0b7102ab734b7b760911b81525073d8763cba276a3738e6de85b4b3bf5fded6d6ca73620004b660201b60201c565b6200026f6040518060400160405280600581526020016418d491505360da1b8152506040518060400160405280601381526020017f43656c6f204272617a696c69616e205265616c0000000000000000000000000081525060405180604001604052806006815260200165109c985e9a5b60d21b81525073e8537a3d056da446677b9e9d6c5db704eaab4787620004b660201b60201c565b6200030560405180604001604052806004815260200163634b455360e01b8152506040518060400160405280601481526020017f43656c6f204b656e79616e205368696c6c696e67000000000000000000000000815250604051806040016040528060058152602001644b656e796160d81b81525073456a3d042c0dbd3db53d5489e98dfb038553b0d0620004b660201b60201c565b62000393604051806040016040528060048152602001635055534f60e01b8152506040518060400160405280600f81526020016e5068696c697070696e65205065736f60881b8152506040518060400160405280600b81526020016a5068696c697070696e657360a81b81525073105d4a9306d2e55a71d2eb95b81553ae1dc20d7b620004b660201b60201c565b6200042c60405180604001604052806004815260200163063434f560e41b8152506040518060400160405280601381526020017f43656c6f20436f6c6f6d6269616e205065736f0000000000000000000000000081525060405180604001604052806008815260200167436f6c6f6d62696160c01b815250738a567e2ae79ca692bd748ab832081c45de4ef982620004b660201b60201c565b620004b46040518060400160405280600481526020016332ac27a360e11b81525060405180604001604052806009815260200168434641204672616e6360b81b8152506040518060400160405280600b81526020016a576573742041667269636160a81b8152507373f93dcc49cb8a239e2032663e9475dd5ef29a08620004b660201b60201c565b565b6040518060a00160405280858152602001848152602001838152602001826001600160a01b0316815260200160011515815250600485604051620004fb9190620005c9565b908152604051908190036020019020815181906200051a90826200069f565b50602082015160018201906200053190826200069f565b50604082015160028201906200054890826200069f565b506060820151600390910180546080909301511515600160a01b026001600160a81b03199093166001600160a01b0390921691909117919091179055600580546001810182556000919091527f036b6384b5eca791c62761152d0c79bb0604c104a5fb6f4eb0703f3154bb3db001620005c285826200069f565b5050505050565b6000825160005b81811015620005ec5760208186018101518583015201620005d0565b506000920191825250919050565b634e487b7160e01b600052604160045260246000fd5b600181811c908216806200062557607f821691505b6020821081036200064657634e487b7160e01b600052602260045260246000fd5b50919050565b601f8211156200069a57600081815260208120601f850160051c81016020861015620006755750805b601f850160051c820191505b81811015620006965782815560010162000681565b5050505b505050565b81516001600160401b03811115620006bb57620006bb620005fa565b620006d381620006cc845462000610565b846200064c565b602080601f8311600181146200070b5760008415620006f25750858301515b600019600386901b1c1916600185901b17855562000696565b600085815260208120601f198616915b828110156200073c578886015182559484019460019091019084016200071b565b50858210156200075b5787850151600019600388901b60f8161c191681555b5050505050600190811b01905550565b611e0d806200077b6000396000f3fe608060405234801561001057600080fd5b50600436106101a95760003560e01c806399cf7c92116100f9578063c5ac022311610097578063d73792a911610071578063d73792a914610403578063e73306271461040c578063f2fde38b14610427578063fff25abb1461043a57600080fd5b8063c5ac0223146103a9578063c8f5bc06146103c4578063d47ce0a6146103e857600080fd5b8063a3c6aba2116100d3578063a3c6aba214610342578063a42dce8014610355578063c415b95c14610368578063c515ee231461037b57600080fd5b806399cf7c92146102df5780639c922d2a146102ff5780639e01e1941461032757600080fd5b80635f81a57c11610166578063715018a611610140578063715018a6146102985780637d1f2de7146102a05780638da5cb5b146102bb57806395ccea67146102cc57600080fd5b80635f81a57c1461025a578063615c8b641461026357806369fe0e2d1461028357600080fd5b80631c555b0c146101ae5780631fa9aa4b146101d75780631fccf672146101ee57806326232a2e146102215780632ce758631461022a5780635bb8cbd41461023f575b600080fd5b6101c16101bc3660046115db565b61044d565b6040516101ce919061163a565b60405180910390f35b6101e060065481565b6040519081526020016101ce565b61020973765de816845861e75a25fca122bb6898b8b1282a81565b6040516001600160a01b0390911681526020016101ce565b6101e060085481565b6102326104f9565b6040516101ce9190611654565b61020973456a3d042c0dbd3db53d5489e98dfb038553b0d081565b6101e060075481565b6102766102713660046115db565b6107f2565b6040516101ce919061174c565b6102966102913660046115db565b61097e565b005b6102966109d1565b61020973d8763cba276a3738e6de85b4b3bf5fded6d6ca7381565b6000546001600160a01b0316610209565b6102966102da366004611824565b6109e5565b6102f26102ed36600461184e565b610a17565b6040516101ce9190611869565b61031261030d3660046115db565b610a83565b6040516101ce999897969594939291906118ad565b61020973105d4a9306d2e55a71d2eb95b81553ae1dc20d7b81565b6101e0610350366004611824565b610b6c565b61029661036336600461184e565b610b9d565b600954610209906001600160a01b031681565b61038e61038936600461191d565b610c0f565b604080519384526020840192909252908201526060016101ce565b6102097373f93dcc49cb8a239e2032663e9475dd5ef29a0881565b6103d76103d236600461196f565b610c51565b6040516101ce959493929190611a20565b61020973e8537a3d056da446677b9e9d6c5db704eaab478781565b6101e061271081565b610209738a567e2ae79ca692bd748ab832081c45de4ef98281565b61029661043536600461184e565b610e32565b6101e0610448366004611a7c565b610e70565b6005818154811061045d57600080fd5b90600052602060002001600091509050805461047890611b34565b80601f01602080910402602001604051908101604052809291908181526020018280546104a490611b34565b80156104f15780601f106104c6576101008083540402835291602001916104f1565b820191906000526020600020905b8154815290600101906020018083116104d457829003601f168201915b505050505081565b60055460609060009067ffffffffffffffff81111561051a5761051a611959565b60405190808252806020026020018201604052801561058857816020015b6105756040518060a0016040528060608152602001606081526020016060815260200160006001600160a01b031681526020016000151581525090565b8152602001906001900390816105385790505b50905060005b6005548110156107ec576004600582815481106105ad576105ad611b68565b906000526020600020016040516105c49190611b7e565b90815260200160405180910390206040518060a00160405290816000820180546105ed90611b34565b80601f016020809104026020016040519081016040528092919081815260200182805461061990611b34565b80156106665780601f1061063b57610100808354040283529160200191610666565b820191906000526020600020905b81548152906001019060200180831161064957829003601f168201915b5050505050815260200160018201805461067f90611b34565b80601f01602080910402602001604051908101604052809291908181526020018280546106ab90611b34565b80156106f85780601f106106cd576101008083540402835291602001916106f8565b820191906000526020600020905b8154815290600101906020018083116106db57829003601f168201915b5050505050815260200160028201805461071190611b34565b80601f016020809104026020016040519081016040528092919081815260200182805461073d90611b34565b801561078a5780601f1061075f5761010080835404028352916020019161078a565b820191906000526020600020905b81548152906001019060200180831161076d57829003601f168201915b5050509183525050600391909101546001600160a01b0381166020830152600160a01b900460ff16151560409091015282518390839081106107ce576107ce611b68565b602002602001018190525080806107e490611c0a565b91505061058e565b50919050565b61083e604080516101208101825260008082526020820181905291810182905260608082018390526080820183905260a0820183905260c082015260e081018290529061010082015290565b60008281526002602081815260409283902083516101208101855281546001600160a01b039081168252600183015481169382019390935292810154821693830193909352600383015416606082015260048201546080820152600582015460a082015260068201805491929160c0840191906108ba90611b34565b80601f01602080910402602001604051908101604052809291908181526020018280546108e690611b34565b80156109335780601f1061090857610100808354040283529160200191610933565b820191906000526020600020905b81548152906001019060200180831161091657829003601f168201915b505050918352505060078201546020820152600882015460409091019060ff16600381111561096457610964611714565b600381111561097557610975611714565b90525092915050565b610986611397565b6101f48111156109cc5760405162461bcd60e51b815260206004820152600c60248201526b08ccaca40e8dede40d0d2ced60a31b60448201526064015b60405180910390fd5b600855565b6109d9611397565b6109e360006113c4565b565b6109ed611397565b610a13610a026000546001600160a01b031690565b6001600160a01b0384169083611414565b5050565b6001600160a01b038116600090815260036020908152604091829020805483518184028101840190945280845260609392830182828015610a7757602002820191906000526020600020905b815481526020019060010190808311610a63575b50505050509050919050565b600260208190526000918252604090912080546001820154928201546003830154600484015460058501546006860180546001600160a01b039687169887169795871696909416949293919291610ad990611b34565b80601f0160208091040260200160405190810160405280929190818152602001828054610b0590611b34565b8015610b525780601f10610b2757610100808354040283529160200191610b52565b820191906000526020600020905b815481529060010190602001808311610b3557829003601f168201915b50505050600783015460089093015491929160ff16905089565b60036020528160005260406000208181548110610b8857600080fd5b90600052602060002001600091509150505481565b610ba5611397565b6001600160a01b038116610bed5760405162461bcd60e51b815260206004820152600f60248201526e496e76616c6964206164647265737360881b60448201526064016109c3565b600980546001600160a01b0319166001600160a01b0392909216919091179055565b600080600061271060085485610c259190611c23565b610c2f9190611c40565b9150610c3b8285611c62565b9250670de0b6b3a7640000905093509350939050565b8051602081830181018051600482529282019190930120915280548190610c7790611b34565b80601f0160208091040260200160405190810160405280929190818152602001828054610ca390611b34565b8015610cf05780601f10610cc557610100808354040283529160200191610cf0565b820191906000526020600020905b815481529060010190602001808311610cd357829003601f168201915b505050505090806001018054610d0590611b34565b80601f0160208091040260200160405190810160405280929190818152602001828054610d3190611b34565b8015610d7e5780601f10610d5357610100808354040283529160200191610d7e565b820191906000526020600020905b815481529060010190602001808311610d6157829003601f168201915b505050505090806002018054610d9390611b34565b80601f0160208091040260200160405190810160405280929190818152602001828054610dbf90611b34565b8015610e0c5780601f10610de157610100808354040283529160200191610e0c565b820191906000526020600020905b815481529060010190602001808311610def57829003601f168201915b505050600390930154919250506001600160a01b0381169060ff600160a01b9091041685565b610e3a611397565b6001600160a01b038116610e6457604051631e4fbdf760e01b8152600060048201526024016109c3565b610e6d816113c4565b50565b6000610e7a611478565b6001600160a01b038816610ec45760405162461bcd60e51b8152602060048201526011602482015270125b9d985b1a59081c9958da5c1a595b9d607a1b60448201526064016109c3565b60008511610f145760405162461bcd60e51b815260206004820152601760248201527f416d6f756e74206d75737420626520706f73697469766500000000000000000060448201526064016109c3565b610f1d876114a2565b610f605760405162461bcd60e51b815260206004820152601460248201527324b73b30b634b21039b7bab931b2903a37b5b2b760611b60448201526064016109c3565b610f69866114a2565b610fac5760405162461bcd60e51b815260206004820152601460248201527324b73b30b634b2103a30b933b2ba103a37b5b2b760611b60448201526064016109c3565b6006546040516bffffffffffffffffffffffff1933606090811b821660208401528b811b821660348401528a811b8216604884015289901b16605c8201526070810187905242609082015260b081019190915260d00160408051601f19818403018152919052805160209091012090506110316001600160a01b03881633308861152b565b6000612710600854876110449190611c23565b61104e9190611c40565b9050600061105c8288611c62565b9050811561107e5760095461107e906001600160a01b038b8116911684611414565b80868110156110c35760405162461bcd60e51b815260206004820152601160248201527014db1a5c1c1859d948195e18d959591959607a1b60448201526064016109c3565b6110d76001600160a01b038a168c83611414565b604051806101200160405280336001600160a01b031681526020018c6001600160a01b031681526020018b6001600160a01b031681526020018a6001600160a01b0316815260200189815260200182815260200187878080601f01602080910402602001604051908101604052809392919081815260200183838082843760009201919091525050509082525042602082015260400160019052600085815260026020818152604092839020845181546001600160a01b039182166001600160a01b031991821617835592860151600183018054918316918516919091179055938501519281018054938516938316939093179092556060840151600383018054919094169116179091556080820151600482015560a0820151600582015560c0820151600682019061120a9082611cc3565b5060e0820151600782015561010082015160088201805460ff1916600183600381111561123957611239611714565b021790555090505060036000336001600160a01b03166001600160a01b03168152602001908152602001600020849080600181540180825580915050600190039060005260206000200160009091909190915055600360008c6001600160a01b03166001600160a01b03168152602001908152602001600020849080600181540180825580915050600190039060005260206000200160009091909190915055600660008154809291906112ec90611c0a565b91905055508a6001600160a01b0316336001600160a01b0316857fe5eaff6d01b66b07e2b563678b10c5074e423cd1f49b156caef89e1e60943d9d8d8d8d8c8c60405161133d959493929190611d83565b60405180910390a4604080518281526020810185905285917f5686f181cf52daf99a5fc5ff0626bf1e23f3a6026c63fc65258785e93b2561b7910160405180910390a250505061138c60018055565b979650505050505050565b6000546001600160a01b031633146109e35760405163118cdaa760e01b81523360048201526024016109c3565b600080546001600160a01b038381166001600160a01b0319831681178455604051919092169283917f8be0079c531659141344cd1fd0a4f28419497f9722a3daafe3b4186f6b6457e09190a35050565b6040516001600160a01b0383811660248301526044820183905261147391859182169063a9059cbb906064015b604051602081830303815290604052915060e01b6020820180516001600160e01b03838183161783525050505061156a565b505050565b60026001540361149b57604051633ee5aeb560e01b815260040160405180910390fd5b6002600155565b6000805b60055481101561152257826001600160a01b03166004600583815481106114cf576114cf611b68565b906000526020600020016040516114e69190611b7e565b908152604051908190036020019020600301546001600160a01b0316036115105750600192915050565b8061151a81611c0a565b9150506114a6565b50600092915050565b6040516001600160a01b0384811660248301528381166044830152606482018390526115649186918216906323b872dd90608401611441565b50505050565b600080602060008451602086016000885af18061158d576040513d6000823e3d81fd5b50506000513d915081156115a55780600114156115b2565b6001600160a01b0384163b155b1561156457604051635274afe760e01b81526001600160a01b03851660048201526024016109c3565b6000602082840312156115ed57600080fd5b5035919050565b6000815180845260005b8181101561161a576020818501810151868301820152016115fe565b506000602082860101526020601f19601f83011685010191505092915050565b60208152600061164d60208301846115f4565b9392505050565b60006020808301818452808551808352604092508286019150828160051b87010184880160005b8381101561170657603f19898403018552815160a081518186526116a1828701826115f4565b915050888201518582038a8701526116b982826115f4565b91505087820151858203898701526116d182826115f4565b6060848101516001600160a01b031690880152608093840151151593909601929092525050938601939086019060010161167b565b509098975050505050505050565b634e487b7160e01b600052602160045260246000fd5b6004811061174857634e487b7160e01b600052602160045260246000fd5b9052565b602081526117666020820183516001600160a01b03169052565b6000602083015161178260408401826001600160a01b03169052565b5060408301516001600160a01b03811660608401525060608301516001600160a01b038116608084015250608083015160a083015260a083015160c083015260c08301516101208060e08501526117dd6101408501836115f4565b60e0860151610100868101919091528601519092506117fe8286018261172a565b5090949350505050565b80356001600160a01b038116811461181f57600080fd5b919050565b6000806040838503121561183757600080fd5b61184083611808565b946020939093013593505050565b60006020828403121561186057600080fd5b61164d82611808565b6020808252825182820181905260009190848201906040850190845b818110156118a157835183529284019291840191600101611885565b50909695505050505050565b6001600160a01b038a8116825289811660208301528881166040830152871660608201526080810186905260a0810185905261012060c082018190526000906118f8838201876115f4565b9150508360e083015261190f61010083018461172a565b9a9950505050505050505050565b60008060006060848603121561193257600080fd5b61193b84611808565b925061194960208501611808565b9150604084013590509250925092565b634e487b7160e01b600052604160045260246000fd5b60006020828403121561198157600080fd5b813567ffffffffffffffff8082111561199957600080fd5b818401915084601f8301126119ad57600080fd5b8135818111156119bf576119bf611959565b604051601f8201601f19908116603f011681019083821181831017156119e7576119e7611959565b81604052828152876020848701011115611a0057600080fd5b826020860160208301376000928101602001929092525095945050505050565b60a081526000611a3360a08301886115f4565b8281036020840152611a4581886115f4565b90508281036040840152611a5981876115f4565b6001600160a01b0395909516606084015250509015156080909101529392505050565b600080600080600080600060c0888a031215611a9757600080fd5b611aa088611808565b9650611aae60208901611808565b9550611abc60408901611808565b9450606088013593506080880135925060a088013567ffffffffffffffff80821115611ae757600080fd5b818a0191508a601f830112611afb57600080fd5b813581811115611b0a57600080fd5b8b6020828501011115611b1c57600080fd5b60208301945080935050505092959891949750929550565b600181811c90821680611b4857607f821691505b6020821081036107ec57634e487b7160e01b600052602260045260246000fd5b634e487b7160e01b600052603260045260246000fd5b6000808354611b8c81611b34565b60018281168015611ba45760018114611bb957611be8565b60ff1984168752821515830287019450611be8565b8760005260208060002060005b85811015611bdf5781548a820152908401908201611bc6565b50505082870194505b50929695505050505050565b634e487b7160e01b600052601160045260246000fd5b600060018201611c1c57611c1c611bf4565b5060010190565b8082028115828204841417611c3a57611c3a611bf4565b92915050565b600082611c5d57634e487b7160e01b600052601260045260246000fd5b500490565b81810381811115611c3a57611c3a611bf4565b601f82111561147357600081815260208120601f850160051c81016020861015611c9c5750805b601f850160051c820191505b81811015611cbb57828155600101611ca8565b505050505050565b815167ffffffffffffffff811115611cdd57611cdd611959565b611cf181611ceb8454611b34565b84611c75565b602080601f831160018114611d265760008415611d0e5750858301515b600019600386901b1c1916600185901b178555611cbb565b600085815260208120601f198616915b82811015611d5557888601518255948401946001909101908401611d36565b5085821015611d735787850151600019600388901b60f8161c191681555b5050505050600190811b01905550565b6001600160a01b038681168252851660208201526040810184905260806060820181905281018290526000828460a0840137600060a0848401015260a0601f19601f8501168301019050969550505050505056fea2646970667358221220827f8610bb749636bbe9da50b6631bbbab764d3ebcd9b67bd4ac8ff8467aad0364736f6c63430008140033",
  "linkReferences": {},
  "deployedLinkReferences": {}
}