{
  "_format": "hh-sol-artifact-1",
  "contractName": "CeloRemit",
  "sourceName": "contracts/CeloRemit.sol",
  "abi": [
    {
      "inputs": [],
      "stateMutability": "nonpayable",
      "type": "constructor"
    },
    {
      "inputs": [
        {
          "internalType": "address",
          "name": "owner",
          "type": "address"
        }
      ],
      "name": "OwnableInvalidOwner",
      "type": "error"
    },
    {
      "inputs": [
        {
          "internalType": "address",
          "name": "account",
          "type": "address"
        }
      ],
      "name": "OwnableUnauthorizedAccount",
      "type": "error"
    },
    {
      "inputs": [],
      "name": "ReentrancyGuardReentrantCall",
      "type": "error"
    },
    {
      "inputs": [
        {
          "internalType": "address",
          "name": "token",
          "type": "address"
        }
      ],
      "name": "SafeERC20FailedOperation",
      "type": "error"
    },
    {
      "anonymous": false,
      "inputs": [
        {
          "indexed": true,
          "internalType": "address",
          "name": "previousOwner",
          "type": "address"
        },
        {
          "indexed": true,
          "internalType": "address",
          "name": "newOwner",
          "type": "address"
        }
      ],
      "name": "OwnershipTransferred",
      "type": "event"
    },
    {
      "anonymous": false,
      "inputs": [
        {
          "indexed": true,
          "internalType": "bytes32",
          "name": "id",
          "type": "bytes32"
        },
        {
          "indexed": false,
          "internalType": "uint256",
          "name": "targetAmount",
          "type": "uint256"
        },
        {
          "indexed": false,
          "internalType": "uint256",
          "name": "fee",
          "type": "uint256"
        }
      ],
      "name": "RemittanceCompleted",
      "type": "event"
    },
    {
      "anonymous": false,
      "inputs": [
        {
          "indexed": true,
          "internalType": "bytes32",
          "name": "id",
          "type": "bytes32"
        },
        {
          "indexed": true,
          "internalType": "address",
          "name": "sender",
          "type": "address"
        },
        {
          "indexed": true,
          "internalType": "address",
          "name": "recipient",
          "type": "address"
        },
        {
          "indexed": false,
          "internalType": "address",
          "name": "sourceToken",
          "type": "address"
        },
        {
          "indexed": false,
          "internalType": "address",
          "name": "targetToken",
          "type": "address"
        },
        {
          "indexed": false,
          "internalType": "uint256",
          "name": "sourceAmount",
          "type": "uint256"
        },
        {
          "indexed": false,
          "internalType": "string",
          "name": "memo",
          "type": "string"
        }
      ],
      "name": "RemittanceCreated",
      "type": "event"
    },
    {
      "inputs": [],
      "name": "FEE_DENOMINATOR",
      "outputs": [
        {
          "internalType": "uint256",
          "name": "",
          "type": "uint256"
        }
      ],
      "stateMutability": "view",
      "type": "function"
    },
    {
      "inputs": [],
      "name": "PUSO",
      "outputs": [
        {
          "internalType": "address",
          "name": "",
          "type": "address"
        }
      ],
      "stateMutability": "view",
      "type": "function"
    },
    {
      "inputs": [],
      "name": "cCOP",
      "outputs": [
        {
          "internalType": "address",
          "name": "",
          "type": "address"
        }
      ],
      "stateMutability": "view",
      "type": "function"
    },
    {
      "inputs": [],
      "name": "cEUR",
      "outputs": [
        {
          "internalType": "address",
          "name": "",
          "type": "address"
        }
      ],
      "stateMutability": "view",
      "type": "function"
    },
    {
      "inputs": [],
      "name": "cKES",
      "outputs": [
        {
          "internalType": "address",
          "name": "",
          "type": "address"
        }
      ],
      "stateMutability": "view",
      "type": "function"
    },
    {
      "inputs": [],
      "name": "cREAL",
      "outputs": [
        {
          "internalType": "address",
          "name": "",
          "type": "address"
        }
      ],
      "stateMutability": "view",
      "type": "function"
    },
    {
      "inputs": [],
      "name": "cUSD",
      "outputs": [
        {
          "internalType": "address",
          "name": "",
          "type": "address"
        }
      ],
      "stateMutability": "view",
      "type": "function"
    },
    {
      "inputs": [
        {
          "internalType": "string",
          "name": "",
          "type": "string"
        }
      ],
      "name": "currencies",
      "outputs": [
        {
          "internalType": "string",
          "name": "symbol",
          "type": "string"
        },
        {
          "internalType": "string",
          "name": "name",
          "type": "string"
        },
        {
          "internalType": "string",
          "name": "country",
          "type": "string"
        },
        {
          "internalType": "address",
          "name": "tokenAddress",
          "type": "address"
        },
        {
          "internalType": "bool",
          "name": "isActive",
          "type": "bool"
        }
      ],
      "stateMutability": "view",
      "type": "function"
    },
    {
      "inputs": [
        {
          "internalType": "uint256",
          "name": "",
          "type": "uint256"
        }
      ],
      "name": "currencySymbols",
      "outputs": [
        {
          "internalType": "string",
          "name": "",
          "type": "string"
        }
      ],
      "stateMutability": "view",
      "type": "function"
    },
    {
      "inputs": [],
      "name": "eXOF",
      "outputs": [
        {
          "internalType": "address",
          "name": "",
          "type": "address"
        }
      ],
      "stateMutability": "view",
      "type": "function"
    },
    {
      "inputs": [
        {
          "internalType": "address",
          "name": "token",
          "type": "address"
        },
        {
          "internalType": "uint256",
          "name": "amount",
          "type": "uint256"
        }
      ],
      "name": "emergencyWithdraw",
      "outputs": [],
      "stateMutability": "nonpayable",
      "type": "function"
    },
    {
      "inputs": [
        {
          "internalType": "address",
          "name": "recipient",
          "type": "address"
        },
        {
          "internalType": "address",
          "name": "sourceToken",
          "type": "address"
        },
        {
          "internalType": "address",
          "name": "targetToken",
          "type": "address"
        },
        {
          "internalType": "uint256",
          "name": "sourceAmount",
          "type": "uint256"
        },
        {
          "internalType": "uint256",
          "name": "minTargetAmount",
          "type": "uint256"
        },
        {
          "internalType": "string",
          "name": "memo",
          "type": "string"
        }
      ],
      "name": "executeRemittance",
      "outputs": [
        {
          "internalType": "bytes32",
          "name": "remittanceId",
          "type": "bytes32"
        }
      ],
      "stateMutability": "nonpayable",
      "type": "function"
    },
    {
      "inputs": [],
      "name": "feeCollector",
      "outputs": [
        {
          "internalType": "address",
          "name": "",
          "type": "address"
        }
      ],
      "stateMutability": "view",
      "type": "function"
    },
    {
      "inputs": [
        {
          "internalType": "address",
          "name": "sourceToken",
          "type": "address"
        },
        {
          "internalType": "address",
          "name": "targetToken",
          "type": "address"
        },
        {
          "internalType": "uint256",
          "name": "sourceAmount",
          "type": "uint256"
        }
      ],
      "name": "getQuote",
      "outputs": [
        {
          "internalType": "uint256",
          "name": "targetAmount",
          "type": "uint256"
        },
        {
          "internalType": "uint256",
          "name": "fee",
          "type": "uint256"
        },
        {
          "internalType": "uint256",
          "name": "exchangeRate",
          "type": "uint256"
        }
      ],
      "stateMutability": "view",
      "type": "function"
    },
    {
      "inputs": [
        {
          "internalType": "bytes32",
          "name": "id",
          "type": "bytes32"
        }
      ],
      "name": "getRemittance",
      "outputs": [
        {
          "components": [
            {
              "internalType": "address",
              "name": "sender",
              "type": "address"
            },
            {
              "internalType": "address",
              "name": "recipient",
              "type": "address"
            },
            {
              "internalType": "address",
              "name": "sourceToken",
              "type": "address"
            },
            {
              "internalType": "address",
              "name": "targetToken",
              "type": "address"
            },
            {
              "internalType": "uint256",
              "name": "sourceAmount",
              "type": "uint256"
            },
            {
              "internalType": "uint256",
              "name": "targetAmount",
              "type": "uint256"
            },
            {
              "internalType": "string",
              "name": "memo",
              "type": "string"
            },
            {
              "internalType": "uint256",
              "name": "timestamp",
              "type": "uint256"
            },
            {
              "internalType": "enum CeloRemit.RemittanceStatus",
              "name": "status",
              "type": "uint8"
            }
          ],
          "internalType": "struct CeloRemit.RemittanceIntent",
          "name": "",
          "type": "tuple"
        }
      ],
      "stateMutability": "view",
      "type": "function"
    },
    {
      "inputs": [],
      "name": "getSupportedCurrencies",
      "outputs": [
        {
          "components": [
            {
              "internalType": "string",
              "name": "symbol",
              "type": "string"
            },
            {
              "internalType": "string",
              "name": "name",
              "type": "string"
            },
            {
              "internalType": "string",
              "name": "country",
              "type": "string"
            },
            {
              "internalType": "address",
              "name": "tokenAddress",
              "type": "address"
            },
            {
              "internalType": "bool",
              "name": "isActive",
              "type": "bool"
            }
          ],
          "internalType": "struct CeloRemit.Currency[]",
          "name": "",
          "type": "tuple[]"
        }
      ],
      "stateMutability": "view",
      "type": "function"
    },
    {
      "inputs": [
        {
          "internalType": "address",
          "name": "user",
          "type": "address"
        }
      ],
      "name": "getUserRemittances",
      "outputs": [
        {
          "internalType": "bytes32[]",
          "name": "",
          "type": "bytes32[]"
        }
      ],
      "stateMutability": "view",
      "type": "function"
    },
    {
      "inputs": [],
      "name": "owner",
      "outputs": [
        {
          "internalType": "address",
          "name": "",
          "type": "address"
        }
      ],
      "stateMutability": "view",
      "type": "function"
    },
    {
      "inputs": [],
      "name": "platformFee",
      "outputs": [
        {
          "internalType": "uint256",
          "name": "",
          "type": "uint256"
        }
      ],
      "stateMutability": "view",
      "type": "function"
    },
    {
      "inputs": [
        {
          "internalType": "bytes32",
          "name": "",
          "type": "bytes32"
        }
      ],
      "name": "remittances",
      "outputs": [
        {
          "internalType": "address",
          "name": "sender",
          "type": "address"
        },
        {
          "internalType": "address",
          "name": "recipient",
          "type": "address"
        },
        {
          "internalType": "address",
          "name": "sourceToken",
          "type": "address"
        },
        {
          "internalType": "address",
          "name": "targetToken",
          "type": "address"
        },
        {
          "internalType": "uint256",
          "name": "sourceAmount",
          "type": "uint256"
        },
        {
          "internalType": "uint256",
          "name": "targetAmount",
          "type": "uint256"
        },
        {
          "internalType": "string",
          "name": "memo",
          "type": "string"
        },
        {
          "internalType": "uint256",
          "name": "timestamp",
          "type": "uint256"
        },
        {
          "internalType": "enum CeloRemit.RemittanceStatus",
          "name": "status",
          "type": "uint8"
        }
      ],
      "stateMutability": "view",
      "type": "function"
    },
    {
      "inputs": [],
      "name": "renounceOwnership",
      "outputs": [],
      "stateMutability": "nonpayable",
      "type": "function"
    },
    {
      "inputs": [
        {
          "internalType": "uint256",
          "name": "_fee",
          "type": "uint256"
        }
      ],
      "name": "setFee",
      "outputs": [],
      "stateMutability": "nonpayable",
      "type": "function"
    },
    {
      "inputs": [
        {
          "internalType": "address",
          "name": "_collector",
          "type": "address"
        }
      ],
      "name": "setFeeCollector",
      "outputs": [],
      "stateMutability": "nonpayable",
      "type": "function"
    },
    {
      "inputs": [],
      "name": "totalRemittances",
      "outputs": [
        {
          "internalType": "uint256",
          "name": "",
          "type": "uint256"
        }
      ],
      "stateMutability": "view",
      "type": "function"
    },
    {
      "inputs": [],
      "name": "totalVolume",
      "outputs": [
        {
          "internalType": "uint256",
          "name": "",
          "type": "uint256"
        }
      ],
      "stateMutability": "view",
      "type": "function"
    },
    {
      "inputs": [
        {
          "internalType": "address",
          "name": "newOwner",
          "type": "address"
        }
      ],
      "name": "transferOwnership",
      "outputs": [],
      "stateMutability": "nonpayable",
      "type": "function"
    },
    {
      "inputs": [
        {
          "internalType": "address",
          "name": "",
          "type": "address"
        },
        {
          "internalType": "uint256",
          "name": "",
          "type": "uint256"
        }
      ],
      "name": "userRemittances",
      "outputs": [
        {
          "internalType": "bytes32",
          "name": "",
          "type": "bytes32"
        }
      ],
      "stateMutability": "view",
      "type": "function"
    }
  ],
  "bytecode": "0x6080604052603260085534801561001557600080fd5b5033600073ffffffffffffffffffffffffffffffffffffffff168173ffffffffffffffffffffffffffffffffffffffff16036100895760006040517f1e4fbdf700000000000000000000000000000000000000000000000000000000815260040161008091906108a3565b60405180910390fd5b610098816100f460201b60201c565b506001808190555033600960006101000a81548173ffffffffffffffffffffffffffffffffffffffff021916908373ffffffffffffffffffffffffffffffffffffffff1602179055506100ef6101b860201b60201c565b610c5d565b60008060009054906101000a900473ffffffffffffffffffffffffffffffffffffffff169050816000806101000a81548173ffffffffffffffffffffffffffffffffffffffff021916908373ffffffffffffffffffffffffffffffffffffffff1602179055508173ffffffffffffffffffffffffffffffffffffffff168173ffffffffffffffffffffffffffffffffffffffff167f8be0079c531659141344cd1fd0a4f28419497f9722a3daafe3b4186f6b6457e060405160405180910390a35050565b61027d6040518060400160405280600481526020017f63555344000000000000000000000000000000000000000000000000000000008152506040518060400160405280600b81526020017f43656c6f20446f6c6c61720000000000000000000000000000000000000000008152506040518060400160405280600d81526020017f556e69746564205374617465730000000000000000000000000000000000000081525073765de816845861e75a25fca122bb6898b8b1282a61071d60201b60201c565b6103426040518060400160405280600481526020017f63455552000000000000000000000000000000000000000000000000000000008152506040518060400160405280600981526020017f43656c6f204575726f00000000000000000000000000000000000000000000008152506040518060400160405280600e81526020017f4575726f7065616e20556e696f6e00000000000000000000000000000000000081525073d8763cba276a3738e6de85b4b3bf5fded6d6ca7361071d60201b60201c565b6104076040518060400160405280600581526020017f635245414c0000000000000000000000000000000000000000000000000000008152506040518060400160405280601381526020017f43656c6f204272617a696c69616e205265616c000000000000000000000000008152506040518060400160405280600681526020017f4272617a696c000000000000000000000000000000000000000000000000000081525073e8537a3d056da446677b9e9d6c5db704eaab478761071d60201b60201c565b6104cc6040518060400160405280600481526020017f634b4553000000000000000000000000000000000000000000000000000000008152506040518060400160405280601481526020017f43656c6f204b656e79616e205368696c6c696e670000000000000000000000008152506040518060400160405280600581526020017f4b656e796100000000000000000000000000000000000000000000000000000081525073456a3d042c0dbd3db53d5489e98dfb038553b0d061071d60201b60201c565b6105916040518060400160405280600481526020017f5055534f000000000000000000000000000000000000000000000000000000008152506040518060400160405280600f81526020017f5068696c697070696e65205065736f00000000000000000000000000000000008152506040518060400160405280600b81526020017f5068696c697070696e657300000000000000000000000000000000000000000081525073105d4a9306d2e55a71d2eb95b81553ae1dc20d7b61071d60201b60201c565b6106566040518060400160405280600481526020017f63434f50000000000000000000000000000000000000000000000000000000008152506040518060400160405280601381526020017f43656c6f20436f6c6f6d6269616e205065736f000000000000000000000000008152506040518060400160405280600881526020017f436f6c6f6d626961000000000000000000000000000000000000000000000000815250738a567e2ae79ca692bd748ab832081c45de4ef98261071d60201b60201c565b61071b6040518060400160405280600481526020017f65584f46000000000000000000000000000000000000000000000000000000008152506040518060400160405280600981526020017f434641204672616e6300000000000000000000000000000000000000000000008152506040518060400160405280600b81526020017f57657374204166726963610000000000000000000000000000000000000000008152507373f93dcc49cb8a239e2032663e9475dd5ef29a0861071d60201b60201c565b565b6040518060a001604052808581526020018481526020018381526020018273ffffffffffffffffffffffffffffffffffffffff1681526020016001151581525060048560405161076d919061092f565b908152602001604051809103902060008201518160000190816107909190610b8b565b5060208201518160010190816107a69190610b8b565b5060408201518160020190816107bc9190610b8b565b5060608201518160030160006101000a81548173ffffffffffffffffffffffffffffffffffffffff021916908373ffffffffffffffffffffffffffffffffffffffff16021790555060808201518160030160146101000a81548160ff02191690831515021790555090505060058490806001815401808255809150506001900390600052602060002001600090919091909150908161085b9190610b8b565b5050505050565b600073ffffffffffffffffffffffffffffffffffffffff82169050919050565b600061088d82610862565b9050919050565b61089d81610882565b82525050565b60006020820190506108b86000830184610894565b92915050565b600081519050919050565b600081905092915050565b60005b838110156108f25780820151818401526020810190506108d7565b60008484015250505050565b6000610909826108be565b61091381856108c9565b93506109238185602086016108d4565b80840191505092915050565b600061093b82846108fe565b915081905092915050565b7f4e487b7100000000000000000000000000000000000000000000000000000000600052604160045260246000fd5b7f4e487b7100000000000000000000000000000000000000000000000000000000600052602260045260246000fd5b600060028204905060018216806109bc57607f821691505b6020821081036109cf576109ce610975565b5b50919050565b60008190508160005260206000209050919050565b60006020601f8301049050919050565b600082821b905092915050565b600060088302610a377fffffffffffffffffffffffffffffffffffffffffffffffffffffffffffffffff826109fa565b610a4186836109fa565b95508019841693508086168417925050509392505050565b6000819050919050565b6000819050919050565b6000610a88610a83610a7e84610a59565b610a63565b610a59565b9050919050565b6000819050919050565b610aa283610a6d565b610ab6610aae82610a8f565b848454610a07565b825550505050565b600090565b610acb610abe565b610ad6818484610a99565b505050565b5b81811015610afa57610aef600082610ac3565b600181019050610adc565b5050565b601f821115610b3f57610b10816109d5565b610b19846109ea565b81016020851015610b28578190505b610b3c610b34856109ea565b830182610adb565b50505b505050565b600082821c905092915050565b6000610b6260001984600802610b44565b1980831691505092915050565b6000610b7b8383610b51565b9150826002028217905092915050565b610b94826108be565b67ffffffffffffffff811115610bad57610bac610946565b5b610bb782546109a4565b610bc2828285610afe565b600060209050601f831160018114610bf55760008415610be3578287015190505b610bed8582610b6f565b865550610c55565b601f198416610c03866109d5565b60005b82811015610c2b57848901518255600182019150602085019450602081019050610c06565b86831015610c485784890151610c44601f891682610b51565b8355505b6001600288020188555050505b505050505050565b61342080610c6c6000396000f3fe608060405234801561001057600080fd5b50600436106101a95760003560e01c806399cf7c92116100f9578063c5ac022311610097578063d73792a911610071578063d73792a9146104d2578063e7330627146104f0578063f2fde38b1461050e578063fff25abb1461052a576101a9565b8063c5ac022314610462578063c8f5bc0614610480578063d47ce0a6146104b4576101a9565b8063a3c6aba2116100d3578063a3c6aba2146103c6578063a42dce80146103f6578063c415b95c14610412578063c515ee2314610430576101a9565b806399cf7c92146103405780639c922d2a146103705780639e01e194146103a8576101a9565b80635f81a57c11610166578063715018a611610140578063715018a6146102de5780637d1f2de7146102e85780638da5cb5b1461030657806395ccea6714610324576101a9565b80635f81a57c14610274578063615c8b641461029257806369fe0e2d146102c2576101a9565b80631c555b0c146101ae5780631fa9aa4b146101de5780631fccf672146101fc57806326232a2e1461021a5780632ce75863146102385780635bb8cbd414610256575b600080fd5b6101c860048036038101906101c39190611f24565b61055a565b6040516101d59190611fe1565b60405180910390f35b6101e6610606565b6040516101f39190612012565b60405180910390f35b61020461060c565b604051610211919061206e565b60405180910390f35b610222610624565b60405161022f9190612012565b60405180910390f35b61024061062a565b60405161024d9190612243565b60405180910390f35b61025e610939565b60405161026b919061206e565b60405180910390f35b61027c610951565b6040516102899190612012565b60405180910390f35b6102ac60048036038101906102a7919061229b565b610957565b6040516102b99190612413565b60405180910390f35b6102dc60048036038101906102d79190611f24565b610bc8565b005b6102e6610c1f565b005b6102f0610c33565b6040516102fd919061206e565b60405180910390f35b61030e610c4b565b60405161031b919061206e565b60405180910390f35b61033e60048036038101906103399190612461565b610c74565b005b61035a600480360381019061035591906124a1565b610cb2565b604051610367919061258c565b60405180910390f35b61038a6004803603810190610385919061229b565b610d49565b60405161039f999897969594939291906125bd565b60405180910390f35b6103b0610eac565b6040516103bd919061206e565b60405180910390f35b6103e060048036038101906103db9190612461565b610ec4565b6040516103ed9190612660565b60405180910390f35b610410600480360381019061040b91906124a1565b610ef5565b005b61041a610fb0565b604051610427919061206e565b60405180910390f35b61044a6004803603810190610445919061267b565b610fd6565b604051610459939291906126ce565b60405180910390f35b61046a61101a565b604051610477919061206e565b60405180910390f35b61049a6004803603810190610495919061283a565b611032565b6040516104ab959493929190612892565b60405180910390f35b6104bc611243565b6040516104c9919061206e565b60405180910390f35b6104da61125b565b6040516104e79190612012565b60405180910390f35b6104f8611261565b604051610505919061206e565b60405180910390f35b610528600480360381019061052391906124a1565b611279565b005b610544600480360381019061053f919061295a565b6112ff565b6040516105519190612660565b60405180910390f35b6005818154811061056a57600080fd5b90600052602060002001600091509050805461058590612a38565b80601f01602080910402602001604051908101604052809291908181526020018280546105b190612a38565b80156105fe5780601f106105d3576101008083540402835291602001916105fe565b820191906000526020600020905b8154815290600101906020018083116105e157829003601f168201915b505050505081565b60065481565b73765de816845861e75a25fca122bb6898b8b1282a81565b60085481565b6060600060058054905067ffffffffffffffff81111561064d5761064c61270f565b5b60405190808252806020026020018201604052801561068657816020015b610673611ddd565b81526020019060019003908161066b5790505b50905060005b600580549050811015610931576004600582815481106106af576106ae612a69565b5b906000526020600020016040516106c69190612b3b565b90815260200160405180910390206040518060a00160405290816000820180546106ef90612a38565b80601f016020809104026020016040519081016040528092919081815260200182805461071b90612a38565b80156107685780601f1061073d57610100808354040283529160200191610768565b820191906000526020600020905b81548152906001019060200180831161074b57829003601f168201915b5050505050815260200160018201805461078190612a38565b80601f01602080910402602001604051908101604052809291908181526020018280546107ad90612a38565b80156107fa5780601f106107cf576101008083540402835291602001916107fa565b820191906000526020600020905b8154815290600101906020018083116107dd57829003601f168201915b5050505050815260200160028201805461081390612a38565b80601f016020809104026020016040519081016040528092919081815260200182805461083f90612a38565b801561088c5780601f106108615761010080835404028352916020019161088c565b820191906000526020600020905b81548152906001019060200180831161086f57829003601f168201915b505050505081526020016003820160009054906101000a900473ffffffffffffffffffffffffffffffffffffffff1673ffffffffffffffffffffffffffffffffffffffff1673ffffffffffffffffffffffffffffffffffffffff1681526020016003820160149054906101000a900460ff16151515158152505082828151811061091957610918612a69565b5b6020026020010181905250808060010191505061068c565b508091505090565b73456a3d042c0dbd3db53d5489e98dfb038553b0d081565b60075481565b61095f611e24565b60026000838152602001908152602001600020604051806101200160405290816000820160009054906101000a900473ffffffffffffffffffffffffffffffffffffffff1673ffffffffffffffffffffffffffffffffffffffff1673ffffffffffffffffffffffffffffffffffffffff1681526020016001820160009054906101000a900473ffffffffffffffffffffffffffffffffffffffff1673ffffffffffffffffffffffffffffffffffffffff1673ffffffffffffffffffffffffffffffffffffffff1681526020016002820160009054906101000a900473ffffffffffffffffffffffffffffffffffffffff1673ffffffffffffffffffffffffffffffffffffffff1673ffffffffffffffffffffffffffffffffffffffff1681526020016003820160009054906101000a900473ffffffffffffffffffffffffffffffffffffffff1673ffffffffffffffffffffffffffffffffffffffff1673ffffffffffffffffffffffffffffffffffffffff1681526020016004820154815260200160058201548152602001600682018054610afa90612a38565b80601f0160208091040260200160405190810160405280929190818152602001828054610b2690612a38565b8015610b735780601f10610b4857610100808354040283529160200191610b73565b820191906000526020600020905b815481529060010190602001808311610b5657829003601f168201915b50505050508152602001600782015481526020016008820160009054906101000a900460ff166003811115610bab57610baa6122d7565b5b6003811115610bbd57610bbc6122d7565b5b815250509050919050565b610bd06119d0565b6101f4811115610c15576040517f08c379a0000000000000000000000000000000000000000000000000000000008152600401610c0c90612b9e565b60405180910390fd5b8060088190555050565b610c276119d0565b610c316000611a57565b565b73d8763cba276a3738e6de85b4b3bf5fded6d6ca7381565b60008060009054906101000a900473ffffffffffffffffffffffffffffffffffffffff16905090565b610c7c6119d0565b610cae610c87610c4b565b828473ffffffffffffffffffffffffffffffffffffffff16611b1b9092919063ffffffff16565b5050565b6060600360008373ffffffffffffffffffffffffffffffffffffffff1673ffffffffffffffffffffffffffffffffffffffff168152602001908152602001600020805480602002602001604051908101604052809291908181526020018280548015610d3d57602002820191906000526020600020905b815481526020019060010190808311610d29575b50505050509050919050565b60026020528060005260406000206000915090508060000160009054906101000a900473ffffffffffffffffffffffffffffffffffffffff16908060010160009054906101000a900473ffffffffffffffffffffffffffffffffffffffff16908060020160009054906101000a900473ffffffffffffffffffffffffffffffffffffffff16908060030160009054906101000a900473ffffffffffffffffffffffffffffffffffffffff1690806004015490806005015490806006018054610e1090612a38565b80601f0160208091040260200160405190810160405280929190818152602001828054610e3c90612a38565b8015610e895780601f10610e5e57610100808354040283529160200191610e89565b820191906000526020600020905b815481529060010190602001808311610e6c57829003601f168201915b5050505050908060070154908060080160009054906101000a900460ff16905089565b73105d4a9306d2e55a71d2eb95b81553ae1dc20d7b81565b60036020528160005260406000208181548110610ee057600080fd5b90600052602060002001600091509150505481565b610efd6119d0565b600073ffffffffffffffffffffffffffffffffffffffff168173ffffffffffffffffffffffffffffffffffffffff1603610f6c576040517f08c379a0000000000000000000000000000000000000000000000000000000008152600401610f6390612c0a565b60405180910390fd5b80600960006101000a81548173ffffffffffffffffffffffffffffffffffffffff021916908373ffffffffffffffffffffffffffffffffffffffff16021790555050565b600960009054906101000a900473ffffffffffffffffffffffffffffffffffffffff1681565b600080600061271060085485610fec9190612c59565b610ff69190612cca565b915081846110049190612cfb565b9250670de0b6b3a7640000905093509350939050565b7373f93dcc49cb8a239e2032663e9475dd5ef29a0881565b60048180516020810182018051848252602083016020850120818352809550505050505060009150905080600001805461106b90612a38565b80601f016020809104026020016040519081016040528092919081815260200182805461109790612a38565b80156110e45780601f106110b9576101008083540402835291602001916110e4565b820191906000526020600020905b8154815290600101906020018083116110c757829003601f168201915b5050505050908060010180546110f990612a38565b80601f016020809104026020016040519081016040528092919081815260200182805461112590612a38565b80156111725780601f1061114757610100808354040283529160200191611172565b820191906000526020600020905b81548152906001019060200180831161115557829003601f168201915b50505050509080600201805461118790612a38565b80601f01602080910402602001604051908101604052809291908181526020018280546111b390612a38565b80156112005780601f106111d557610100808354040283529160200191611200565b820191906000526020600020905b8154815290600101906020018083116111e357829003601f168201915b5050505050908060030160009054906101000a900473ffffffffffffffffffffffffffffffffffffffff16908060030160149054906101000a900460ff16905085565b73e8537a3d056da446677b9e9d6c5db704eaab478781565b61271081565b738a567e2ae79ca692bd748ab832081c45de4ef98281565b6112816119d0565b600073ffffffffffffffffffffffffffffffffffffffff168173ffffffffffffffffffffffffffffffffffffffff16036112f35760006040517f1e4fbdf70000000000000000000000000000000000000000000000000000000081526004016112ea919061206e565b60405180910390fd5b6112fc81611a57565b50565b6000611309611b9a565b600073ffffffffffffffffffffffffffffffffffffffff168873ffffffffffffffffffffffffffffffffffffffff1603611378576040517f08c379a000000000000000000000000000000000000000000000000000000000815260040161136f90612d7b565b60405180910390fd5b600085116113bb576040517f08c379a00000000000000000000000000000000000000000000000000000000081526004016113b290612de7565b60405180910390fd5b6113c487611be0565b611403576040517f08c379a00000000000000000000000000000000000000000000000000000000081526004016113fa90612e53565b60405180910390fd5b61140c86611be0565b61144b576040517f08c379a000000000000000000000000000000000000000000000000000000000815260040161144290612ebf565b60405180910390fd5b33888888884260065460405160200161146a9796959493929190612f48565b6040516020818303038152906040528051906020012090506114af3330878a73ffffffffffffffffffffffffffffffffffffffff16611ca8909392919063ffffffff16565b6000612710600854876114c29190612c59565b6114cc9190612cca565b9050600081876114dc9190612cfb565b9050600082111561153557611534600960009054906101000a900473ffffffffffffffffffffffffffffffffffffffff16838b73ffffffffffffffffffffffffffffffffffffffff16611b1b9092919063ffffffff16565b5b60008190508681101561157d576040517f08c379a000000000000000000000000000000000000000000000000000000000815260040161157490613015565b60405180910390fd5b6115a88b828b73ffffffffffffffffffffffffffffffffffffffff16611b1b9092919063ffffffff16565b6040518061012001604052803373ffffffffffffffffffffffffffffffffffffffff1681526020018c73ffffffffffffffffffffffffffffffffffffffff1681526020018b73ffffffffffffffffffffffffffffffffffffffff1681526020018a73ffffffffffffffffffffffffffffffffffffffff16815260200189815260200182815260200187878080601f016020809104026020016040519081016040528093929190818152602001838380828437600081840152601f19601f82011690508083019250505050505050815260200142815260200160016003811115611694576116936122d7565b5b8152506002600086815260200190815260200160002060008201518160000160006101000a81548173ffffffffffffffffffffffffffffffffffffffff021916908373ffffffffffffffffffffffffffffffffffffffff16021790555060208201518160010160006101000a81548173ffffffffffffffffffffffffffffffffffffffff021916908373ffffffffffffffffffffffffffffffffffffffff16021790555060408201518160020160006101000a81548173ffffffffffffffffffffffffffffffffffffffff021916908373ffffffffffffffffffffffffffffffffffffffff16021790555060608201518160030160006101000a81548173ffffffffffffffffffffffffffffffffffffffff021916908373ffffffffffffffffffffffffffffffffffffffff1602179055506080820151816004015560a0820151816005015560c08201518160060190816117ef91906131cc565b5060e082015181600701556101008201518160080160006101000a81548160ff02191690836003811115611826576118256122d7565b5b0217905550905050600360003373ffffffffffffffffffffffffffffffffffffffff1673ffffffffffffffffffffffffffffffffffffffff168152602001908152602001600020849080600181540180825580915050600190039060005260206000200160009091909190915055600360008c73ffffffffffffffffffffffffffffffffffffffff1673ffffffffffffffffffffffffffffffffffffffff1681526020019081526020016000208490806001815401808255809150506001900390600052602060002001600090919091909150556006600081548092919061190d9061329e565b91905055508a73ffffffffffffffffffffffffffffffffffffffff163373ffffffffffffffffffffffffffffffffffffffff16857fe5eaff6d01b66b07e2b563678b10c5074e423cd1f49b156caef89e1e60943d9d8d8d8d8c8c604051611978959493929190613313565b60405180910390a4837f5686f181cf52daf99a5fc5ff0626bf1e23f3a6026c63fc65258785e93b2561b782856040516119b2929190613361565b60405180910390a25050506119c5611d2a565b979650505050505050565b6119d8611d33565b73ffffffffffffffffffffffffffffffffffffffff166119f6610c4b565b73ffffffffffffffffffffffffffffffffffffffff1614611a5557611a19611d33565b6040517f118cdaa7000000000000000000000000000000000000000000000000000000008152600401611a4c919061206e565b60405180910390fd5b565b60008060009054906101000a900473ffffffffffffffffffffffffffffffffffffffff169050816000806101000a81548173ffffffffffffffffffffffffffffffffffffffff021916908373ffffffffffffffffffffffffffffffffffffffff1602179055508173ffffffffffffffffffffffffffffffffffffffff168173ffffffffffffffffffffffffffffffffffffffff167f8be0079c531659141344cd1fd0a4f28419497f9722a3daafe3b4186f6b6457e060405160405180910390a35050565b611b95838473ffffffffffffffffffffffffffffffffffffffff1663a9059cbb8585604051602401611b4e92919061338a565b604051602081830303815290604052915060e01b6020820180517bffffffffffffffffffffffffffffffffffffffffffffffffffffffff8381831617835250505050611d3b565b505050565b600260015403611bd6576040517f3ee5aeb500000000000000000000000000000000000000000000000000000000815260040160405180910390fd5b6002600181905550565b600080600090505b600580549050811015611c9d578273ffffffffffffffffffffffffffffffffffffffff16600460058381548110611c2257611c21612a69565b5b90600052602060002001604051611c399190612b3b565b908152602001604051809103902060030160009054906101000a900473ffffffffffffffffffffffffffffffffffffffff1673ffffffffffffffffffffffffffffffffffffffff1603611c90576001915050611ca3565b8080600101915050611be8565b50600090505b919050565b611d24848573ffffffffffffffffffffffffffffffffffffffff166323b872dd868686604051602401611cdd939291906133b3565b604051602081830303815290604052915060e01b6020820180517bffffffffffffffffffffffffffffffffffffffffffffffffffffffff8381831617835250505050611d3b565b50505050565b60018081905550565b600033905090565b600080602060008451602086016000885af180611d5e576040513d6000823e3d81fd5b3d925060005191505060008214611d79576001811415611d95565b60008473ffffffffffffffffffffffffffffffffffffffff163b145b15611dd757836040517f5274afe7000000000000000000000000000000000000000000000000000000008152600401611dce919061206e565b60405180910390fd5b50505050565b6040518060a00160405280606081526020016060815260200160608152602001600073ffffffffffffffffffffffffffffffffffffffff1681526020016000151581525090565b604051806101200160405280600073ffffffffffffffffffffffffffffffffffffffff168152602001600073ffffffffffffffffffffffffffffffffffffffff168152602001600073ffffffffffffffffffffffffffffffffffffffff168152602001600073ffffffffffffffffffffffffffffffffffffffff1681526020016000815260200160008152602001606081526020016000815260200160006003811115611ed457611ed36122d7565b5b81525090565b6000604051905090565b600080fd5b600080fd5b6000819050919050565b611f0181611eee565b8114611f0c57600080fd5b50565b600081359050611f1e81611ef8565b92915050565b600060208284031215611f3a57611f39611ee4565b5b6000611f4884828501611f0f565b91505092915050565b600081519050919050565b600082825260208201905092915050565b60005b83811015611f8b578082015181840152602081019050611f70565b60008484015250505050565b6000601f19601f8301169050919050565b6000611fb382611f51565b611fbd8185611f5c565b9350611fcd818560208601611f6d565b611fd681611f97565b840191505092915050565b60006020820190508181036000830152611ffb8184611fa8565b905092915050565b61200c81611eee565b82525050565b60006020820190506120276000830184612003565b92915050565b600073ffffffffffffffffffffffffffffffffffffffff82169050919050565b60006120588261202d565b9050919050565b6120688161204d565b82525050565b6000602082019050612083600083018461205f565b92915050565b600081519050919050565b600082825260208201905092915050565b6000819050602082019050919050565b600082825260208201905092915050565b60006120d182611f51565b6120db81856120b5565b93506120eb818560208601611f6d565b6120f481611f97565b840191505092915050565b6121088161204d565b82525050565b60008115159050919050565b6121238161210e565b82525050565b600060a083016000830151848203600086015261214682826120c6565b9150506020830151848203602086015261216082826120c6565b9150506040830151848203604086015261217a82826120c6565b915050606083015161218f60608601826120ff565b5060808301516121a2608086018261211a565b508091505092915050565b60006121b98383612129565b905092915050565b6000602082019050919050565b60006121d982612089565b6121e38185612094565b9350836020820285016121f5856120a5565b8060005b85811015612231578484038952815161221285826121ad565b945061221d836121c1565b925060208a019950506001810190506121f9565b50829750879550505050505092915050565b6000602082019050818103600083015261225d81846121ce565b905092915050565b6000819050919050565b61227881612265565b811461228357600080fd5b50565b6000813590506122958161226f565b92915050565b6000602082840312156122b1576122b0611ee4565b5b60006122bf84828501612286565b91505092915050565b6122d181611eee565b82525050565b7f4e487b7100000000000000000000000000000000000000000000000000000000600052602160045260246000fd5b60048110612317576123166122d7565b5b50565b600081905061232882612306565b919050565b60006123388261231a565b9050919050565b6123488161232d565b82525050565b60006101208301600083015161236760008601826120ff565b50602083015161237a60208601826120ff565b50604083015161238d60408601826120ff565b5060608301516123a060608601826120ff565b5060808301516123b360808601826122c8565b5060a08301516123c660a08601826122c8565b5060c083015184820360c08601526123de82826120c6565b91505060e08301516123f360e08601826122c8565b5061010083015161240861010086018261233f565b508091505092915050565b6000602082019050818103600083015261242d818461234e565b905092915050565b61243e8161204d565b811461244957600080fd5b50565b60008135905061245b81612435565b92915050565b6000806040838503121561247857612477611ee4565b5b60006124868582860161244c565b925050602061249785828601611f0f565b9150509250929050565b6000602082840312156124b7576124b6611ee4565b5b60006124c58482850161244c565b91505092915050565b600081519050919050565b600082825260208201905092915050565b6000819050602082019050919050565b61250381612265565b82525050565b600061251583836124fa565b60208301905092915050565b6000602082019050919050565b6000612539826124ce565b61254381856124d9565b935061254e836124ea565b8060005b8381101561257f5781516125668882612509565b975061257183612521565b925050600181019050612552565b5085935050505092915050565b600060208201905081810360008301526125a6818461252e565b905092915050565b6125b78161232d565b82525050565b6000610120820190506125d3600083018c61205f565b6125e0602083018b61205f565b6125ed604083018a61205f565b6125fa606083018961205f565b6126076080830188612003565b61261460a0830187612003565b81810360c08301526126268186611fa8565b905061263560e0830185612003565b6126436101008301846125ae565b9a9950505050505050505050565b61265a81612265565b82525050565b60006020820190506126756000830184612651565b92915050565b60008060006060848603121561269457612693611ee4565b5b60006126a28682870161244c565b93505060206126b38682870161244c565b92505060406126c486828701611f0f565b9150509250925092565b60006060820190506126e36000830186612003565b6126f06020830185612003565b6126fd6040830184612003565b949350505050565b600080fd5b600080fd5b7f4e487b7100000000000000000000000000000000000000000000000000000000600052604160045260246000fd5b61274782611f97565b810181811067ffffffffffffffff821117156127665761276561270f565b5b80604052505050565b6000612779611eda565b9050612785828261273e565b919050565b600067ffffffffffffffff8211156127a5576127a461270f565b5b6127ae82611f97565b9050602081019050919050565b82818337600083830152505050565b60006127dd6127d88461278a565b61276f565b9050828152602081018484840111156127f9576127f861270a565b5b6128048482856127bb565b509392505050565b600082601f83011261282157612820612705565b5b81356128318482602086016127ca565b91505092915050565b6000602082840312156128505761284f611ee4565b5b600082013567ffffffffffffffff81111561286e5761286d611ee9565b5b61287a8482850161280c565b91505092915050565b61288c8161210e565b82525050565b600060a08201905081810360008301526128ac8188611fa8565b905081810360208301526128c08187611fa8565b905081810360408301526128d48186611fa8565b90506128e3606083018561205f565b6128f06080830184612883565b9695505050505050565b600080fd5b600080fd5b60008083601f84011261291a57612919612705565b5b8235905067ffffffffffffffff811115612937576129366128fa565b5b602083019150836001820283011115612953576129526128ff565b5b9250929050565b600080600080600080600060c0888a03121561297957612978611ee4565b5b60006129878a828b0161244c565b97505060206129988a828b0161244c565b96505060406129a98a828b0161244c565b95505060606129ba8a828b01611f0f565b94505060806129cb8a828b01611f0f565b93505060a088013567ffffffffffffffff8111156129ec576129eb611ee9565b5b6129f88a828b01612904565b925092505092959891949750929550565b7f4e487b7100000000000000000000000000000000000000000000000000000000600052602260045260246000fd5b60006002820490506001821680612a5057607f821691505b602082108103612a6357612a62612a09565b5b50919050565b7f4e487b7100000000000000000000000000000000000000000000000000000000600052603260045260246000fd5b600081905092915050565b60008190508160005260206000209050919050565b60008154612ac581612a38565b612acf8186612a98565b94506001821660008114612aea5760018114612aff57612b32565b60ff1983168652811515820286019350612b32565b612b0885612aa3565b60005b83811015612b2a57815481890152600182019150602081019050612b0b565b838801955050505b50505092915050565b6000612b478284612ab8565b915081905092915050565b7f46656520746f6f20686967680000000000000000000000000000000000000000600082015250565b6000612b88600c83611f5c565b9150612b9382612b52565b602082019050919050565b60006020820190508181036000830152612bb781612b7b565b9050919050565b7f496e76616c696420616464726573730000000000000000000000000000000000600082015250565b6000612bf4600f83611f5c565b9150612bff82612bbe565b602082019050919050565b60006020820190508181036000830152612c2381612be7565b9050919050565b7f4e487b7100000000000000000000000000000000000000000000000000000000600052601160045260246000fd5b6000612c6482611eee565b9150612c6f83611eee565b9250828202612c7d81611eee565b91508282048414831517612c9457612c93612c2a565b5b5092915050565b7f4e487b7100000000000000000000000000000000000000000000000000000000600052601260045260246000fd5b6000612cd582611eee565b9150612ce083611eee565b925082612cf057612cef612c9b565b5b828204905092915050565b6000612d0682611eee565b9150612d1183611eee565b9250828203905081811115612d2957612d28612c2a565b5b92915050565b7f496e76616c696420726563697069656e74000000000000000000000000000000600082015250565b6000612d65601183611f5c565b9150612d7082612d2f565b602082019050919050565b60006020820190508181036000830152612d9481612d58565b9050919050565b7f416d6f756e74206d75737420626520706f736974697665000000000000000000600082015250565b6000612dd1601783611f5c565b9150612ddc82612d9b565b602082019050919050565b60006020820190508181036000830152612e0081612dc4565b9050919050565b7f496e76616c696420736f7572636520746f6b656e000000000000000000000000600082015250565b6000612e3d601483611f5c565b9150612e4882612e07565b602082019050919050565b60006020820190508181036000830152612e6c81612e30565b9050919050565b7f496e76616c69642074617267657420746f6b656e000000000000000000000000600082015250565b6000612ea9601483611f5c565b9150612eb482612e73565b602082019050919050565b60006020820190508181036000830152612ed881612e9c565b9050919050565b60008160601b9050919050565b6000612ef782612edf565b9050919050565b6000612f0982612eec565b9050919050565b612f21612f1c8261204d565b612efe565b82525050565b6000819050919050565b612f42612f3d82611eee565b612f27565b82525050565b6000612f54828a612f10565b601482019150612f648289612f10565b601482019150612f748288612f10565b601482019150612f848287612f10565b601482019150612f948286612f31565b602082019150612fa48285612f31565b602082019150612fb48284612f31565b60208201915081905098975050505050505050565b7f536c697070616765206578636565646564000000000000000000000000000000600082015250565b6000612fff601183611f5c565b915061300a82612fc9565b602082019050919050565b6000602082019050818103600083015261302e81612ff2565b9050919050565b60006020601f8301049050919050565b600082821b905092915050565b6000600883026130827fffffffffffffffffffffffffffffffffffffffffffffffffffffffffffffffff82613045565b61308c8683613045565b95508019841693508086168417925050509392505050565b6000819050919050565b60006130c96130c46130bf84611eee565b6130a4565b611eee565b9050919050565b6000819050919050565b6130e3836130ae565b6130f76130ef826130d0565b848454613052565b825550505050565b600090565b61310c6130ff565b6131178184846130da565b505050565b5b8181101561313b57613130600082613104565b60018101905061311d565b5050565b601f8211156131805761315181612aa3565b61315a84613035565b81016020851015613169578190505b61317d61317585613035565b83018261311c565b50505b505050565b600082821c905092915050565b60006131a360001984600802613185565b1980831691505092915050565b60006131bc8383613192565b9150826002028217905092915050565b6131d582611f51565b67ffffffffffffffff8111156131ee576131ed61270f565b5b6131f88254612a38565b61320382828561313f565b600060209050601f8311600181146132365760008415613224578287015190505b61322e85826131b0565b865550613296565b601f19841661324486612aa3565b60005b8281101561326c57848901518255600182019150602085019450602081019050613247565b868310156132895784890151613285601f891682613192565b8355505b6001600288020188555050505b505050505050565b60006132a982611eee565b91507fffffffffffffffffffffffffffffffffffffffffffffffffffffffffffffffff82036132db576132da612c2a565b5b600182019050919050565b60006132f28385611f5c565b93506132ff8385846127bb565b61330883611f97565b840190509392505050565b6000608082019050613328600083018861205f565b613335602083018761205f565b6133426040830186612003565b81810360608301526133558184866132e6565b90509695505050505050565b60006040820190506133766000830185612003565b6133836020830184612003565b9392505050565b600060408201905061339f600083018561205f565b6133ac6020830184612003565b9392505050565b60006060820190506133c8600083018661205f565b6133d5602083018561205f565b6133e26040830184612003565b94935050505056fea2646970667358221220180f8da9553c8d2e23fcc9bb7b5438e1e5b07cfe2963cbf9c038fdd6937a981c64736f6c634300081e0033",
  "linkReferences": {},
  "deployedLinkReferences": {}
}